:100000000C9434000C9451000C9451000C94510049
:100010000C9451000C9451000C9451000C947400F9
:100020000C9451000C9451000C9451000C9451000C
:100030000C9451000C9451000C9451000C945100FC
:100040000C9451000C9451000C9451000C945100EC
:100050000C9451000C9451000C9451000C945100DC
:100060000C9451000C94510011241FBECFEFD8E026
:10007000DEBFCDBF11E0A0E0B1E0E4EEF1E002C0F0
:1000800005900D92A631B107D9F711E0A6E1B1E0D4
:1000900001C01D92A831B107E1F70E94C4000C9481
:1000A000F0000C940000DF93CF93CDB7DEB782EB66
:1000B00090E0FC01108283EB90E0FC01108280EB69
:1000C00090E021E8FC01208381EB90E0FC011082AC
:1000D00080E790E020E730E0F90120812260FC0118
:1000E0002083CF91DF9108951F920F920FB60F9248
:1000F00011242F933F935F936F937F938F939F93DD
:10010000AF93BF93EF93FF93DF93CF93CDB7DEB75A
:10011000809116019091170101962BE030E0B90112
:100120000E94C900909317018093160183EB90E021
:100130002091160130911701220F331F20503F4F9D
:10014000F90120813181FC012083CF91DF91FF9162
:10015000EF91BF91AF919F918F917F916F915F913F
:100160003F912F910F900FBE0F901F901895DF9326
:10017000CF93CDB7DEB781EB90E024E0FC01208384
:100180007894CF91DF910895DF93CF93CDB7DEB709
:10019000FFCF97FB092E07260AD077FD04D00CD09D
:1001A00006D000201AF4709561957F4F0895F6F7F8
:1001B000909581959F4F0895AA1BBB1B51E107C0E5
:1001C000AA1FBB1FA617B70710F0A61BB70B881FE7
:1001D000991F5A95A9F780959095BC01CD01089576
:0401E000F894FFCFC1
:1001E40000001A0033004D00660080009900B3003F
:0601F400CC00E600FF0054
:00000001FF
